{
  "contractName": "Offer",
  "abi": [
    {
      "inputs": [],
      "payable": false,
      "stateMutability": "nonpayable",
      "type": "constructor"
    },
    {
      "constant": false,
      "inputs": [
        {
          "name": "name",
          "type": "string"
        },
        {
          "name": "category",
          "type": "string"
        },
        {
          "name": "model",
          "type": "string"
        },
        {
          "name": "price",
          "type": "uint256"
        },
        {
          "name": "endpoint",
          "type": "string"
        },
        {
          "name": "inputs",
          "type": "string"
        },
        {
          "name": "outputs",
          "type": "string"
        },
        {
          "name": "year",
          "type": "uint16"
        },
        {
          "name": "month",
          "type": "uint8"
        },
        {
          "name": "day",
          "type": "uint8"
        },
        {
          "name": "hour",
          "type": "uint8"
        }
      ],
      "name": "addOffer",
      "outputs": [],
      "payable": false,
      "stateMutability": "nonpayable",
      "type": "function"
    },
    {
      "constant": false,
      "inputs": [
        {
          "name": "ID",
          "type": "uint256"
        },
        {
          "name": "_input",
          "type": "string"
        }
      ],
      "name": "deleteInput",
      "outputs": [
        {
          "name": "deleted",
          "type": "bool"
        }
      ],
      "payable": false,
      "stateMutability": "nonpayable",
      "type": "function"
    },
    {
      "constant": false,
      "inputs": [
        {
          "name": "ID",
          "type": "uint256"
        },
        {
          "name": "_output",
          "type": "string"
        }
      ],
      "name": "deleteOutput",
      "outputs": [
        {
          "name": "deleted",
          "type": "bool"
        }
      ],
      "payable": false,
      "stateMutability": "nonpayable",
      "type": "function"
    },
    {
      "constant": false,
      "inputs": [
        {
          "name": "ID",
          "type": "uint256"
        }
      ],
      "name": "deleteOffer",
      "outputs": [],
      "payable": false,
      "stateMutability": "nonpayable",
      "type": "function"
    },
    {
      "constant": true,
      "inputs": [
        {
          "name": "_ID",
          "type": "uint256"
        }
      ],
      "name": "getOffer",
      "outputs": [
        {
          "name": "ID",
          "type": "uint256"
        },
        {
          "name": "provider",
          "type": "address"
        },
        {
          "name": "name",
          "type": "string"
        },
        {
          "name": "category",
          "type": "string"
        },
        {
          "name": "price",
          "type": "uint256"
        },
        {
          "name": "endpoint",
          "type": "string"
        },
        {
          "name": "inputs",
          "type": "bytes32[]"
        },
        {
          "name": "outputs",
          "type": "bytes32[]"
        }
      ],
      "payable": false,
      "stateMutability": "view",
      "type": "function"
    },
    {
      "constant": true,
      "inputs": [
        {
          "name": "category",
          "type": "string"
        },
        {
          "name": "price",
          "type": "uint256"
        },
        {
          "name": "inputs",
          "type": "bytes32[]"
        },
        {
          "name": "outputs",
          "type": "bytes32[]"
        },
        {
          "name": "ittr",
          "type": "uint256"
        }
      ],
      "name": "offeringQueryOne",
      "outputs": [
        {
          "name": "",
          "type": "uint256"
        }
      ],
      "payable": false,
      "stateMutability": "view",
      "type": "function"
    },
    {
      "constant": true,
      "inputs": [
        {
          "name": "category",
          "type": "string"
        },
        {
          "name": "price",
          "type": "uint256"
        },
        {
          "name": "inputs",
          "type": "bytes32[]"
        },
        {
          "name": "outputs",
          "type": "bytes32[]"
        },
        {
          "name": "ittr",
          "type": "uint256"
        },
        {
          "name": "offSet",
          "type": "uint256"
        }
      ],
      "name": "offeringQueryOneOffset",
      "outputs": [
        {
          "name": "",
          "type": "uint256"
        }
      ],
      "payable": false,
      "stateMutability": "view",
      "type": "function"
    },
    {
      "constant": true,
      "inputs": [
        {
          "name": "category",
          "type": "string"
        },
        {
          "name": "price",
          "type": "uint256"
        },
        {
          "name": "inputs",
          "type": "bytes32[]"
        },
        {
          "name": "outputs",
          "type": "bytes32[]"
        },
        {
          "name": "ittr",
          "type": "uint256"
        }
      ],
      "name": "offeringQueryList",
      "outputs": [
        {
          "name": "",
          "type": "uint256[]"
        }
      ],
      "payable": false,
      "stateMutability": "view",
      "type": "function"
    },
    {
      "constant": true,
      "inputs": [
        {
          "name": "category",
          "type": "string"
        },
        {
          "name": "price",
          "type": "uint256"
        },
        {
          "name": "inputs",
          "type": "bytes32[]"
        },
        {
          "name": "outputs",
          "type": "bytes32[]"
        },
        {
          "name": "ittr",
          "type": "uint256"
        }
      ],
      "name": "offeringQueryListTest",
      "outputs": [
        {
          "name": "",
          "type": "uint256"
        }
      ],
      "payable": false,
      "stateMutability": "view",
      "type": "function"
    },
    {
      "constant": true,
      "inputs": [],
      "name": "getOfferLength",
      "outputs": [
        {
          "name": "length",
          "type": "uint256"
        }
      ],
      "payable": false,
      "stateMutability": "view",
      "type": "function"
    },
    {
      "constant": false,
      "inputs": [],
      "name": "destroy",
      "outputs": [],
      "payable": false,
      "stateMutability": "nonpayable",
      "type": "function"
    }
  ],
  "bytecode": "0x608060405234801561001057600080fd5b50600160008190555033600160006101000a81548173ffffffffffffffffffffffffffffffffffffffff021916908373ffffffffffffffffffffffffffffffffffffffff160217905550615816806200006a6000396000f3006080604052600436106100af576000357c0100000000000000000000000000000000000000000000000000000000900463ffffffff168063018c4c68146100b45780630614c2011461013f5780630bd6445514610256578063111b0606146102815780634579268a1461030c57806368bf45c21461055b57806374268ff21461067c5780637ae1877e146106a957806383197ef0146108af578063f371e113146108c6578063f63e05d714610a1e575b600080fd5b3480156100c057600080fd5b5061012560048036038101908080359060200190929190803590602001908201803590602001908080601f0160208091040260200160405190810160405280939291908181526020018383808284378201915050505050509192919290505050610b35565b604051808215151515815260200191505060405180910390f35b34801561014b57600080fd5b50610240600480360381019080803590602001908201803590602001908080601f016020809104026020016040519081016040528093929190818152602001838380828437820191505050505050919291929080359060200190929190803590602001908201803590602001908080602002602001604051908101604052809392919081815260200183836020028082843782019150505050505091929192908035906020019082018035906020019080806020026020016040519081016040528093929190818152602001838360200280828437820191505050505050919291929080359060200190929190505050610c97565b6040518082815260200191505060405180910390f35b34801561026257600080fd5b5061026b611054565b6040518082815260200191505060405180910390f35b34801561028d57600080fd5b506102f260048036038101908080359060200190929190803590602001908201803590602001908080601f0160208091040260200160405190810160405280939291908181526020018383808284378201915050505050509192919290505050611063565b604051808215151515815260200191505060405180910390f35b34801561031857600080fd5b50610337600480360381019080803590602001909291905050506111c5565b604051808981526020018873ffffffffffffffffffffffffffffffffffffffff1673ffffffffffffffffffffffffffffffffffffffff168152602001806020018060200187815260200180602001806020018060200186810386528c818151815260200191508051906020019080838360005b838110156103c55780820151818401526020810190506103aa565b50505050905090810190601f1680156103f25780820380516001836020036101000a031916815260200191505b5086810385528b818151815260200191508051906020019080838360005b8381101561042b578082015181840152602081019050610410565b50505050905090810190601f1680156104585780820380516001836020036101000a031916815260200191505b50868103845289818151815260200191508051906020019080838360005b83811015610491578082015181840152602081019050610476565b50505050905090810190601f1680156104be5780820380516001836020036101000a031916815260200191505b50868103835288818151815260200191508051906020019060200280838360005b838110156104fa5780820151818401526020810190506104df565b50505050905001868103825287818151815260200191508051906020019060200280838360005b8381101561053c578082015181840152602081019050610521565b505050509050019d505050505050505050505050505060405180910390f35b34801561056757600080fd5b50610666600480360381019080803590602001908201803590602001908080601f01602080910402602001604051908101604052809392919081815260200183838082843782019150505050505091929192908035906020019092919080359060200190820180359060200190808060200260200160405190810160405280939291908181526020018383602002808284378201915050505050509192919290803590602001908201803590602001908080602002602001604051908101604052809392919081815260200183836020028082843782019150505050505091929192908035906020019092919080359060200190929190505050611562565b6040518082815260200191505060405180910390f35b34801561068857600080fd5b506106a760048036038101908080359060200190929190505050611940565b005b3480156106b557600080fd5b506108ad600480360381019080803590602001908201803590602001908080601f0160208091040260200160405190810160405280939291908181526020018383808284378201915050505050509192919290803590602001908201803590602001908080601f0160208091040260200160405190810160405280939291908181526020018383808284378201915050505050509192919290803590602001908201803590602001908080601f016020809104026020016040519081016040528093929190818152602001838380828437820191505050505050919291929080359060200190929190803590602001908201803590602001908080601f0160208091040260200160405190810160405280939291908181526020018383808284378201915050505050509192919290803590602001908201803590602001908080601f0160208091040260200160405190810160405280939291908181526020018383808284378201915050505050509192919290803590602001908201803590602001908080601f0160208091040260200160405190810160405280939291908181526020018383808284378201915050505050509192919290803561ffff169060200190929190803560ff169060200190929190803560ff169060200190929190803560ff169060200190929190505050611a53565b005b3480156108bb57600080fd5b506108c4611cc3565b005b3480156108d257600080fd5b506109c7600480360381019080803590602001908201803590602001908080601f016020809104026020016040519081016040528093929190818152602001838380828437820191505050505050919291929080359060200190929190803590602001908201803590602001908080602002602001604051908101604052809392919081815260200183836020028082843782019150505050505091929192908035906020019082018035906020019080806020026020016040519081016040528093929190818152602001838360200280828437820191505050505050919291929080359060200190929190505050611d56565b6040518080602001828103825283818151815260200191508051906020019060200280838360005b83811015610a0a5780820151818401526020810190506109ef565b505050509050019250505060405180910390f35b348015610a2a57600080fd5b50610b1f600480360381019080803590602001908201803590602001908080601f01602080910402602001604051908101604052809392919081815260200183838082843782019150505050505091929192908035906020019092919080359060200190820180359060200190808060200260200160405190810160405280939291908181526020018383602002808284378201915050505050509192919290803590602001908201803590602001908080602002602001604051908101604052809392919081815260200183836020028082843782019150505050505091929192908035906020019092919050505061220e565b6040518082815260200191505060405180910390f35b6000806000610b7a85856040805190810160405280600681526020017f6f757470757400000000000000000000000000000000000000000000000000008152506125e5565b91509150600115158215151415610c8a57600260008681526020019081526020016000206008016001600260008881526020019081526020016000206008018054905003815481101515610bca57fe5b90600052602060002001546002600087815260200190815260200160002060080182815481101515610bf857fe5b906000526020600020018160001916905550600260008681526020019081526020016000206008016001600260008881526020019081526020016000206008018054905003815481101515610c4957fe5b906000526020600020016000905560026000868152602001908152602001600020600801805480919060019003610c809190615517565b5060019250610c8f565b600092505b505092915050565b600060606000806000806000808c9650600087511415610cbb5761270e9750611044565b439550600194505b8885101561103e578c6040518082805190602001908083835b602083101515610d015780518252602082019150602081019050602083039250610cdc565b6001836020036101000a038019825116818451168082178552505050505050905001915050604051809103902060001916600260008781526020019081526020016000206003016040518082805460018160011615610100020316600290048015610da35780601f10610d81576101008083540402835291820191610da3565b820191906000526020600020905b815481529060010190602001808311610d8f575b505091505060405180910390206000191614156110305760008c148015610dcb575060008b51145b8015610dd8575060008a51145b15610de557849750611044565b60008c14158015610e0b575060026000868152602001908152602001600020600401548c105b15610e1557611031565b6000935060008b511115610f0757600092505b6002600086815260200190815260200160002060070180549050831015610f0657600091505b8a51821015610ef9578a82815181101515610e6557fe5b906020019060200201516040518082600019166000191681526020019150506040518091039020600019166002600087815260200190815260200160002060070184815481101515610eb357fe5b90600052602060002001546040518082600019166000191681526020019150506040518091039020600019161415610eec576001840193505b8180600101925050610e4e565b8280600101935050610e28565b5b60008a51118015610f1957508a518410155b1561101c5760009050600092505b600260008681526020019081526020016000206008018054905083101561100557600091505b8951821015610ff8578982815181101515610f6457fe5b906020019060200201516040518082600019166000191681526020019150506040518091039020600019166002600087815260200190815260200160002060080184815481101515610fb257fe5b90600052602060002001546040518082600019166000191681526020019150506040518091039020600019161415610feb576001810190505b8180600101925050610f4d565b8280600101935050610f27565b89518110151561101757849750611044565b61102f565b8a518410151561102e57849750611044565b5b5b5b8480600101955050610cc3565b61270f97505b5050505050505095945050505050565b60008060005490508091505090565b60008060006110a885856040805190810160405280600581526020017f696e7075740000000000000000000000000000000000000000000000000000008152506125e5565b915091506001151582151514156111b8576002600086815260200190815260200160002060070160016002600088815260200190815260200160002060070180549050038154811015156110f857fe5b9060005260206000200154600260008781526020019081526020016000206007018281548110151561112657fe5b90600052602060002001816000191690555060026000868152602001908152602001600020600701600160026000888152602001908152602001600020600701805490500381548110151561117757fe5b9060005260206000200160009055600260008681526020019081526020016000206007018054809190600190036111ae9190615517565b50600192506111bd565b600092505b505092915050565b600080606080600060608060606111da615543565b600260008b81526020019081526020016000206101206040519081016040529081600082015481526020016001820160009054906101000a900473ffffffffffffffffffffffffffffffffffffffff1673ffffffffffffffffffffffffffffffffffffffff1673ffffffffffffffffffffffffffffffffffffffff168152602001600282018054600181600116156101000203166002900480601f0160208091040260200160405190810160405280929190818152602001828054600181600116156101000203166002900480156112f35780601f106112c8576101008083540402835291602001916112f3565b820191906000526020600020905b8154815290600101906020018083116112d657829003601f168201915b50505050508152602001600382018054600181600116156101000203166002900480601f0160208091040260200160405190810160405280929190818152602001828054600181600116156101000203166002900480156113955780601f1061136a57610100808354040283529160200191611395565b820191906000526020600020905b81548152906001019060200180831161137857829003601f168201915b505050505081526020016004820154815260200160058201548152602001600682018054600181600116156101000203166002900480601f01602080910402602001604051908101604052809291908181526020018280546001816001161561010002031660029004801561144b5780601f106114205761010080835404028352916020019161144b565b820191906000526020600020905b81548152906001019060200180831161142e57829003601f168201915b50505050508152602001600782018054806020026020016040519081016040528092919081815260200182805480156114a757602002820191906000526020600020905b8154600019168152602001906001019080831161148f575b505050505081526020016008820180548060200260200160405190810160405280929190818152602001828054801561150357602002820191906000526020600020905b815460001916815260200190600101908083116114eb575b5050505050815250509050806000015181602001518260400151836060015184608001518560c001518660e001518761010001518595508494508292508191508090509850985098509850985098509850985050919395975091939597565b600060606000806000806000808d96506000875114156115865761270e975061192f565b600095508894505b898510156119295760018a03851480156115a85750600086145b156115b95760009450889950600195505b8d6040518082805190602001908083835b6020831015156115ef57805182526020820191506020810190506020830392506115ca565b6001836020036101000a0380198251168184511680821785525050505050509050019150506040518091039020600019166002600087815260200190815260200160002060030160405180828054600181600116156101000203166002900480156116915780601f1061166f576101008083540402835291820191611691565b820191906000526020600020905b81548152906001019060200180831161167d575b5050915050604051809103902060001916141561191e5760008d1480156116b9575060008c51145b80156116c6575060008b51145b156116d35784975061192f565b60008d141580156116f9575060026000868152602001908152602001600020600401548d105b156117035761158e565b6000935060008c5111156117f557600092505b60026000868152602001908152602001600020600701805490508310156117f457600091505b8b518210156117e7578b8281518110151561175357fe5b9060200190602002015160405180826000191660001916815260200191505060405180910390206000191660026000878152602001908152602001600020600701848154811015156117a157fe5b906000526020600020015460405180826000191660001916815260200191505060405180910390206000191614156117da576001840193505b818060010192505061173c565b8280600101935050611716565b5b60008b5111801561180757508b518410155b1561190a5760009050600092505b60026000868152602001908152602001600020600801805490508310156118f357600091505b8a518210156118e6578a8281518110151561185257fe5b9060200190602002015160405180826000191660001916815260200191505060405180910390206000191660026000878152602001908152602001600020600801848154811015156118a057fe5b906000526020600020015460405180826000191660001916815260200191505060405180910390206000191614156118d9576001810190505b818060010192505061183b565b8280600101935050611815565b8a51811015156119055784975061192f565b61191d565b8b518410151561191c5784975061192f565b5b5b60018501945061158e565b61270f97505b505050505050509695505050505050565b6002600082815260200190815260200160002060010160009054906101000a900473ffffffffffffffffffffffffffffffffffffffff1673ffffffffffffffffffffffffffffffffffffffff163373ffffffffffffffffffffffffffffffffffffffff161415611a5057600260008281526020019081526020016000206000808201600090556001820160006101000a81549073ffffffffffffffffffffffffffffffffffffffff02191690556002820160006119fd91906155a6565b600382016000611a0d91906155a6565b60048201600090556005820160009055600682016000611a2d91906155a6565b600782016000611a3d91906155ee565b600882016000611a4d91906155ee565b50505b50565b611a5b615543565b60005481600001818152505033816020019073ffffffffffffffffffffffffffffffffffffffff16908173ffffffffffffffffffffffffffffffffffffffff1681525050611aa88b6129d9565b8015611ab95750611ab88a61444d565b5b8015611b3f57506040518060000190506040518091039020600019168c6040518082805190602001908083835b602083101515611b0b5780518252602082019150602081019050602083039250611ae6565b6001836020036101000a03801982511681845116808217855250505050505090500191505060405180910390206000191614155b15611cb5578b8160400181905250888160800181815250508a8160600181905250611b6c85858585614af3565b8160a00181815250508060026000805481526020019081526020016000206000820151816000015560208201518160010160006101000a81548173ffffffffffffffffffffffffffffffffffffffff021916908373ffffffffffffffffffffffffffffffffffffffff1602179055506040820151816002019080519060200190611bf792919061560f565b506060820151816003019080519060200190611c1492919061560f565b506080820151816004015560a0820151816005015560c0820151816006019080519060200190611c4592919061560f565b5060e0820151816007019080519060200190611c6292919061568f565b50610100820151816008019080519060200190611c8092919061568f565b50905050611c9060005489614b0e565b611c9c60005488614ba8565b611ca860005487614d60565b6001600054016000819055505b505050505050505050505050565b3373ffffffffffffffffffffffffffffffffffffffff16600160009054906101000a900473ffffffffffffffffffffffffffffffffffffffff1673ffffffffffffffffffffffffffffffffffffffff161415611d5457600160009054906101000a900473ffffffffffffffffffffffffffffffffffffffff1673ffffffffffffffffffffffffffffffffffffffff16ff5b565b6060806000806000806000808c9650600087511415611dc65785805480602002602001604051908101604052809291908181526020018280548015611dba57602002820191906000526020600020905b815481526020019060010190808311611da6575b505050505097506121fe565b600194505b888510156121ab578c6040518082805190602001908083835b602083101515611e095780518252602082019150602081019050602083039250611de4565b6001836020036101000a038019825116818451168082178552505050505050905001915050604051809103902060001916600260008781526020019081526020016000206003016040518082805460018160011615610100020316600290048015611eab5780601f10611e89576101008083540402835291820191611eab565b820191906000526020600020905b815481529060010190602001808311611e97575b5050915050604051809103902060001916141561219d5760008c14158015611ee8575060026000868152602001908152602001600020600401548c105b15611ef25761219e565b60008b51148015611f04575060008a51145b15611f39578585908060018154018082558091505090600182039060005260206000200160009091929091909150555061219c565b6000935060008b51111561202b57600092505b600260008681526020019081526020016000206007018054905083101561202a57600091505b8a5182101561201d578a82815181101515611f8957fe5b906020019060200201516040518082600019166000191681526020019150506040518091039020600019166002600087815260200190815260200160002060070184815481101515611fd757fe5b90600052602060002001546040518082600019166000191681526020019150506040518091039020600019161415612010576001840193505b8180600101925050611f72565b8280600101935050611f4c565b5b60008a5111801561203d57508a518410155b156121645760009050600092505b600260008681526020019081526020016000206008018054905083101561212957600091505b895182101561211c57898281518110151561208857fe5b9060200190602002015160405180826000191660001916815260200191505060405180910390206000191660026000878152602001908152602001600020600801848154811015156120d657fe5b9060005260206000200154604051808260001916600019168152602001915050604051809103902060001916141561210f576001810190505b8180600101925050612071565b828060010193505061204b565b89518110151561215f57858590806001815401808255809150509060018203906000526020600020016000909192909190915055505b61219b565b8a518410151561219a57858590806001815401808255809150509060018203906000526020600020016000909192909190915055505b5b5b5b5b8480600101955050611dcb565b858054806020026020016040519081016040528092919081815260200182805480156121f657602002820191906000526020600020905b8154815260200190600101908083116121e2575b505050505097505b5050505050505095945050505050565b6000606060008060008060008060008d975060009650856001908060018154018082558091505090600182039060005260206000200160009091929091909150555060008851141561226357600098506125d4565b600194505b898510156125d0578d6040518082805190602001908083835b6020831015156122a65780518252602082019150602081019050602083039250612281565b6001836020036101000a0380198251168184511680821785525050505050509050019150506040518091039020600019166002600087815260200190815260200160002060030160405180828054600181600116156101000203166002900480156123485780601f10612326576101008083540402835291820191612348565b820191906000526020600020905b815481529060010190602001808311612334575b505091505060405180910390206000191614156125c25760008d14158015612385575060026000868152602001908152602001600020600401548d105b1561238f576125c3565b60008c511480156123a1575060008b51145b156123ae578496506125c1565b6000935060008c5111156124a057600092505b600260008681526020019081526020016000206007018054905083101561249f57600091505b8b51821015612492578b828151811015156123fe57fe5b90602001906020020151604051808260001916600019168152602001915050604051809103902060001916600260008781526020019081526020016000206007018481548110151561244c57fe5b90600052602060002001546040518082600019166000191681526020019150506040518091039020600019161415612485576001840193505b81806001019250506123e7565b82806001019350506123c1565b5b60008b511180156124b257508b518410155b156125b15760009050600092505b600260008681526020019081526020016000206008018054905083101561259e57600091505b8a51821015612591578a828151811015156124fd57fe5b90602001906020020151604051808260001916600019168152602001915050604051809103902060001916600260008781526020019081526020016000206008018481548110151561254b57fe5b90600052602060002001546040518082600019166000191681526020019150506040518091039020600019161415612584576001810190505b81806001019250506124e6565b82806001019350506124c0565b8a51811015156125ac578496505b6125c0565b8b51841015156125bf578496505b5b5b5b5b8480600101955050612268565b8698505b505050505050505095945050505050565b600080600080600060026000898152602001908152602001600020600001541415801561267357503373ffffffffffffffffffffffffffffffffffffffff166002600089815260200190815260200160002060010160009054906101000a900473ffffffffffffffffffffffffffffffffffffffff1673ffffffffffffffffffffffffffffffffffffffff16145b156129c45760405180807f696e7075740000000000000000000000000000000000000000000000000000008152506005019050604051809103902060001916856040518082805190602001908083835b6020831015156126e857805182526020820191506020810190506020830392506126c3565b6001836020036101000a038019825116818451168082178552505050505050905001915050604051809103902060001916141561281f57600091505b600260008881526020019081526020016000206007018054905082101561281a57856040518082805190602001908083835b60208310151561277b5780518252602082019150602081019050602083039250612756565b6001836020036101000a03801982511681845116808217855250505050505090500191505060405180910390206000191660026000898152602001908152602001600020600701838154811015156127cf57fe5b9060005260206000200154604051808260001916600019168152602001915050604051809103902060001916141561280d57600182935093506129cf565b8180600101925050612724565b6129c3565b60405180807f6f757470757400000000000000000000000000000000000000000000000000008152506006019050604051809103902060001916856040518082805190602001908083835b60208310151561288f578051825260208201915060208101905060208303925061286a565b6001836020036101000a03801982511681845116808217855250505050505090500191505060405180910390206000191614156129c257600090505b60026000888152602001908152602001600020600801805490508110156129c157856040518082805190602001908083835b60208310151561292257805182526020820191506020810190506020830392506128fd565b6001836020036101000a038019825116818451168082178552505050505050905001915050604051809103902060001916600260008981526020019081526020016000206008018281548110151561297657fe5b906000526020600020015460405180826000191660001916815260200191505060405180910390206000191614156129b457600181935093506129cf565b80806001019150506128cb565b5b5b5b600080809050935093505b5050935093915050565b600073__StringUtils___________________________6346bdca9a836040518263ffffffff167c0100000000000000000000000000000000000000000000000000000000028152600401808060200180602001838103835284818151815260200191508051906020019080838360005b83811015612a65578082015181840152602081019050612a4a565b50505050905090810190601f168015612a925780820380516001836020036101000a031916815260200191505b50838103825260178152602001807f4d6f62696c6974794665617475726543617465676f7279000000000000000000815250602001935050505060206040518083038186803b158015612ae457600080fd5b505af4158015612af8573d6000803e3d6000fd5b505050506040513d6020811015612b0e57600080fd5b810190808051906020019092919050505015612b2d5760019050614448565b73__StringUtils___________________________6346bdca9a836040518263ffffffff167c0100000000000000000000000000000000000000000000000000000000028152600401808060200180602001838103835284818151815260200191508051906020019080838360005b83811015612bb7578082015181840152602081019050612b9c565b50505050905090810190601f168015612be45780820380516001836020036101000a031916815260200191505b508381038252600f8152602001807f5061726b696e6743617465676f72790000000000000000000000000000000000815250602001935050505060206040518083038186803b158015612c3657600080fd5b505af4158015612c4a573d6000803e3d6000fd5b505050506040513d6020811015612c6057600080fd5b810190808051906020019092919050505015612c7f5760019050614448565b73__StringUtils___________________________6346bdca9a836040518263ffffffff167c0100000000000000000000000000000000000000000000000000000000028152600401808060200180602001838103835284818151815260200191508051906020019080838360005b83811015612d09578082015181840152602081019050612cee565b50505050905090810190601f168015612d365780820380516001836020036101000a031916815260200191505b50838103825260148152602001807f5061726b696e67537061636543617465676f7279000000000000000000000000815250602001935050505060206040518083038186803b158015612d8857600080fd5b505af4158015612d9c573d6000803e3d6000fd5b505050506040513d6020811015612db257600080fd5b810190808051906020019092919050505015612dd15760019050614448565b73__StringUtils___________________________6346bdca9a836040518263ffffffff167c0100000000000000000000000000000000000000000000000000000000028152600401808060200180602001838103835284818151815260200191508051906020019080838360005b83811015612e5b578082015181840152602081019050612e40565b50505050905090810190601f168015612e885780820380516001836020036101000a031916815260200191505b50838103825260138152602001807f5061726b696e675369746543617465676f727900000000000000000000000000815250602001935050505060206040518083038186803b158015612eda57600080fd5b505af4158015612eee573d6000803e3d6000fd5b505050506040513d6020811015612f0457600080fd5b810190808051906020019092919050505015612f235760019050614448565b73__StringUtils___________________________6346bdca9a836040518263ffffffff167c0100000000000000000000000000000000000000000000000000000000028152600401808060200180602001838103835284818151815260200191508051906020019080838360005b83811015612fad578082015181840152602081019050612f92565b50505050905090810190601f168015612fda5780820380516001836020036101000a031916815260200191505b50838103825260168152602001807f5472616e73706f72746174696f6e43617465676f727900000000000000000000815250602001935050505060206040518083038186803b15801561302c57600080fd5b505af4158015613040573d6000803e3d6000fd5b505050506040513d602081101561305657600080fd5b8101908080519060200190929190505050156130755760019050614448565b73__StringUtils___________________________6346bdca9a836040518263ffffffff167c0100000000000000000000000000000000000000000000000000000000028152600401808060200180602001838103835284818151815260200191508051906020019080838360005b838110156130ff5780820151818401526020810190506130e4565b50505050905090810190601f16801561312c5780820380516001836020036101000a031916815260200191505b508381038252601a8152602001807f42696b6553686172696e6753746174696f6e43617465676f7279000000000000815250602001935050505060206040518083038186803b15801561317e57600080fd5b505af4158015613192573d6000803e3d6000fd5b505050506040513d60208110156131a857600080fd5b8101908080519060200190929190505050156131c75760019050614448565b73__StringUtils___________________________6346bdca9a836040518263ffffffff167c0100000000000000000000000000000000000000000000000000000000028152600401808060200180602001838103835284818151815260200191508051906020019080838360005b83811015613251578082015181840152602081019050613236565b50505050905090810190601f16801561327e5780820380516001836020036101000a031916815260200191505b50838103825260168152602001807f436172446961676e6f737469637343617465676f727900000000000000000000815250602001935050505060206040518083038186803b1580156132d057600080fd5b505af41580156132e4573d6000803e3d6000fd5b505050506040513d60208110156132fa57600080fd5b8101908080519060200190929190505050156133195760019050614448565b73__StringUtils___________________________6346bdca9a836040518263ffffffff167c0100000000000000000000000000000000000000000000000000000000028152600401808060200180602001838103835284818151815260200191508051906020019080838360005b838110156133a3578082015181840152602081019050613388565b50505050905090810190601f1680156133d05780820380516001836020036101000a031916815260200191505b508381038252600b8152602001807f42757343617465676f7279000000000000000000000000000000000000000000815250602001935050505060206040518083038186803b15801561342257600080fd5b505af4158015613436573d6000803e3d6000fd5b505050506040513d602081101561344c57600080fd5b81019080805190602001909291905050501561346b5760019050614448565b73__StringUtils___________________________6346bdca9a836040518263ffffffff167c0100000000000000000000000000000000000000000000000000000000028152600401808060200180602001838103835284818151815260200191508051906020019080838360005b838110156134f55780820151818401526020810190506134da565b50505050905090810190601f1680156135225780820380516001836020036101000a031916815260200191505b50838103825260188152602001807f4c6f636174696f6e547261636b696e6743617465676f72790000000000000000815250602001935050505060206040518083038186803b15801561357457600080fd5b505af4158015613588573d6000803e3d6000fd5b505050506040513d602081101561359e57600080fd5b8101908080519060200190929190505050156135bd5760019050614448565b73__StringUtils___________________________6346bdca9a836040518263ffffffff167c0100000000000000000000000000000000000000000000000000000000028152600401808060200180602001838103835284818151815260200191508051906020019080838360005b8381101561364757808201518184015260208101905061362c565b50505050905090810190601f1680156136745780820380516001836020036101000a031916815260200191505b508381038252601f8152602001807f50656f706c6544656e73697479457374696d6174696f6e43617465676f727900815250602001935050505060206040518083038186803b1580156136c657600080fd5b505af41580156136da573d6000803e3d6000fd5b505050506040513d60208110156136f057600080fd5b81019080805190602001909291905050501561370f5760019050614448565b73__StringUtils___________________________6346bdca9a836040518263ffffffff167c0100000000000000000000000000000000000000000000000000000000028152600401808060200180602001838103835284818151815260200191508051906020019080838360005b8381101561379957808201518184015260208101905061377e565b50505050905090810190601f1680156137c65780820380516001836020036101000a031916815260200191505b508381038252601a8152602001807f50656f706c6544656e736974794f6e42757343617465676f7279000000000000815250602001935050505060206040518083038186803b15801561381857600080fd5b505af415801561382c573d6000803e3d6000fd5b505050506040513d602081101561384257600080fd5b8101908080519060200190929190505050156138615760019050614448565b73__StringUtils___________________________6346bdca9a836040518263ffffffff167c0100000000000000000000000000000000000000000000000000000000028152600401808060200180602001838103835284818151815260200191508051906020019080838360005b838110156138eb5780820151818401526020810190506138d0565b50505050905090810190601f1680156139185780820380516001836020036101000a031916815260200191505b50838103825260208152602001807f50656f706c654d6f62696c69747957697468696e4172656143617465676f7279815250602001935050505060206040518083038186803b15801561396a57600080fd5b505af415801561397e573d6000803e3d6000fd5b505050506040513d602081101561399457600080fd5b8101908080519060200190929190505050156139b35760019050614448565b73__StringUtils___________________________6346bdca9a836040518263ffffffff167c0100000000000000000000000000000000000000000000000000000000028152600401808060200180602001838103835284818151815260200191508051906020019080838360005b83811015613a3d578082015181840152602081019050613a22565b50505050905090810190601f168015613a6a5780820380516001836020036101000a031916815260200191505b508381038252601b8152602001807f50656f706c6544656e73697479496e4172656143617465676f72790000000000815250602001935050505060206040518083038186803b158015613abc57600080fd5b505af4158015613ad0573d6000803e3d6000fd5b505050506040513d6020811015613ae657600080fd5b810190808051906020019092919050505015613b055760019050614448565b73__StringUtils___________________________6346bdca9a836040518263ffffffff167c0100000000000000000000000000000000000000000000000000000000028152600401808060200180602001838103835284818151815260200191508051906020019080838360005b83811015613b8f578082015181840152602081019050613b74565b50505050905090810190601f168015613bbc5780820380516001836020036101000a031916815260200191505b508381038252600f8152602001807f5472616666696343617465676f72790000000000000000000000000000000000815250602001935050505060206040518083038186803b158015613c0e57600080fd5b505af4158015613c22573d6000803e3d6000fd5b505050506040513d6020811015613c3857600080fd5b810190808051906020019092919050505015613c575760019050614448565b73__StringUtils___________________________6346bdca9a836040518263ffffffff167c0100000000000000000000000000000000000000000000000000000000028152600401808060200180602001838103835284818151815260200191508051906020019080838360005b83811015613ce1578082015181840152602081019050613cc6565b50505050905090810190601f168015613d0e5780820380516001836020036101000a031916815260200191505b50838103825260178152602001807f547261666669634f62737461636c6543617465676f7279000000000000000000815250602001935050505060206040518083038186803b158015613d6057600080fd5b505af4158015613d74573d6000803e3d6000fd5b505050506040513d6020811015613d8a57600080fd5b810190808051906020019092919050505015613da95760019050614448565b73__StringUtils___________________________6346bdca9a836040518263ffffffff167c0100000000000000000000000000000000000000000000000000000000028152600401808060200180602001838103835284818151815260200191508051906020019080838360005b83811015613e33578082015181840152602081019050613e18565b50505050905090810190601f168015613e605780820380516001836020036101000a031916815260200191505b50838103825260138152602001807f547261666669634461746143617465676f727900000000000000000000000000815250602001935050505060206040518083038186803b158015613eb257600080fd5b505af4158015613ec6573d6000803e3d6000fd5b505050506040513d6020811015613edc57600080fd5b810190808051906020019092919050505015613efb5760019050614448565b73__StringUtils___________________________6346bdca9a836040518263ffffffff167c0100000000000000000000000000000000000000000000000000000000028152600401808060200180602001838103835284818151815260200191508051906020019080838360005b83811015613f85578082015181840152602081019050613f6a565b50505050905090810190601f168015613fb25780820380516001836020036101000a031916815260200191505b50838103825260108152602001807f4163636964656e7443617465676f727900000000000000000000000000000000815250602001935050505060206040518083038186803b15801561400457600080fd5b505af4158015614018573d6000803e3d6000fd5b505050506040513d602081101561402e57600080fd5b81019080805190602001909291905050501561404d5760019050614448565b73__StringUtils___________________________6346bdca9a836040518263ffffffff167c0100000000000000000000000000000000000000000000000000000000028152600401808060200180602001838103835284818151815260200191508051906020019080838360005b838110156140d75780820151818401526020810190506140bc565b50505050905090810190601f1680156141045780820380516001836020036101000a031916815260200191505b50838103825260108152602001807f4368617267696e6743617465676f727900000000000000000000000000000000815250602001935050505060206040518083038186803b15801561415657600080fd5b505af415801561416a573d6000803e3d6000fd5b505050506040513d602081101561418057600080fd5b81019080805190602001909291905050501561419f5760019050614448565b73__StringUtils___________________________6346bdca9a836040518263ffffffff167c0100000000000000000000000000000000000000000000000000000000028152600401808060200180602001838103835284818151815260200191508051906020019080838360005b8381101561422957808201518184015260208101905061420e565b50505050905090810190601f1680156142565780820380516001836020036101000a031916815260200191505b50838103825260158152602001807f4368617267696e67506f696e7443617465676f72790000000000000000000000815250602001935050505060206040518083038186803b1580156142a857600080fd5b505af41580156142bc573d6000803e3d6000fd5b505050506040513d60208110156142d257600080fd5b8101908080519060200190929190505050156142f15760019050614448565b73__StringUtils___________________________6346bdca9a836040518263ffffffff167c0100000000000000000000000000000000000000000000000000000000028152600401808060200180602001838103835284818151815260200191508051906020019080838360005b8381101561437b578082015181840152602081019050614360565b50505050905090810190601f1680156143a85780820380516001836020036101000a031916815260200191505b50838103825260108152602001807f4368617267696e6753746174696f6e4300000000000000000000000000000000815250602001935050505060206040518083038186803b1580156143fa57600080fd5b505af415801561440e573d6000803e3d6000fd5b505050506040513d602081101561442457600080fd5b8101908080519060200190929190505050156144435760019050614448565b600090505b919050565b600073__StringUtils___________________________6346bdca9a836040518263ffffffff167c0100000000000000000000000000000000000000000000000000000000028152600401808060200180602001838103835284818151815260200191508051906020019080838360005b838110156144d95780820151818401526020810190506144be565b50505050905090810190601f1680156145065780820380516001836020036101000a031916815260200191505b50838103825260048152602001807f4652454500000000000000000000000000000000000000000000000000000000815250602001935050505060206040518083038186803b15801561455857600080fd5b505af415801561456c573d6000803e3d6000fd5b505050506040513d602081101561458257600080fd5b8101908080519060200190929190505050156145a15760019050614aee565b73__StringUtils___________________________6346bdca9a836040518263ffffffff167c0100000000000000000000000000000000000000000000000000000000028152600401808060200180602001838103835284818151815260200191508051906020019080838360005b8381101561462b578082015181840152602081019050614610565b50505050905090810190601f1680156146585780820380516001836020036101000a031916815260200191505b508381038252600a8152602001807f5045525f41434345535300000000000000000000000000000000000000000000815250602001935050505060206040518083038186803b1580156146aa57600080fd5b505af41580156146be573d6000803e3d6000fd5b505050506040513d60208110156146d457600080fd5b8101908080519060200190929190505050156146f35760019050614aee565b73__StringUtils___________________________6346bdca9a836040518263ffffffff167c0100000000000000000000000000000000000000000000000000000000028152600401808060200180602001838103835284818151815260200191508051906020019080838360005b8381101561477d578082015181840152602081019050614762565b50505050905090810190601f1680156147aa5780820380516001836020036101000a031916815260200191505b50838103825260088152602001807f5045525f42595445000000000000000000000000000000000000000000000000815250602001935050505060206040518083038186803b1580156147fc57600080fd5b505af4158015614810573d6000803e3d6000fd5b505050506040513d602081101561482657600080fd5b8101908080519060200190929190505050156148455760019050614aee565b73__StringUtils___________________________6346bdca9a836040518263ffffffff167c0100000000000000000000000000000000000000000000000000000000028152600401808060200180602001838103835284818151815260200191508051906020019080838360005b838110156148cf5780820151818401526020810190506148b4565b50505050905090810190601f1680156148fc5780820380516001836020036101000a031916815260200191505b508381038252600b8152602001807f5045525f4d455353414745000000000000000000000000000000000000000000815250602001935050505060206040518083038186803b15801561494e57600080fd5b505af4158015614962573d6000803e3d6000fd5b505050506040513d602081101561497857600080fd5b8101908080519060200190929190505050156149975760019050614aee565b73__StringUtils___________________________6346bdca9a836040518263ffffffff167c0100000000000000000000000000000000000000000000000000000000028152600401808060200180602001838103835284818151815260200191508051906020019080838360005b83811015614a21578082015181840152602081019050614a06565b50505050905090810190601f168015614a4e5780820380516001836020036101000a031916815260200191505b50838103825260098152602001807f5045525f4d4f4e54480000000000000000000000000000000000000000000000815250602001935050505060206040518083038186803b158015614aa057600080fd5b505af4158015614ab4573d6000803e3d6000fd5b505050506040513d6020811015614aca57600080fd5b810190808051906020019092919050505015614ae95760019050614aee565b600090505b919050565b6000614b0485858585600080614f18565b9050949350505050565b6002600083815260200190815260200160002060010160009054906101000a900473ffffffffffffffffffffffffffffffffffffffff1673ffffffffffffffffffffffffffffffffffffffff163373ffffffffffffffffffffffffffffffffffffffff161415614ba45780600260008481526020019081526020016000206006019080519060200190614ba29291906156e2565b505b5050565b614bb0615762565b60606000614bbc615762565b60006002600088815260200190815260200160002060010160009054906101000a900473ffffffffffffffffffffffffffffffffffffffff1673ffffffffffffffffffffffffffffffffffffffff163373ffffffffffffffffffffffffffffffffffffffff161415614d5757859350614c83614c6c6040805190810160405280600181526020017f2c000000000000000000000000000000000000000000000000000000000000008152506151bf565b614c75866151bf565b6151ed90919063ffffffff16565b9250614c8e866151bf565b9150600090505b60018301811015614d5657614cf2614ce16040805190810160405280600181526020017f2c000000000000000000000000000000000000000000000000000000000000008152506151bf565b86846152649092919063ffffffff16565b5060026000888152602001908152602001600020600701614d1a614d1587615302565b615364565b90806001815401808255809150509060018203906000526020600020016000909192909190915090600019169055508080600101915050614c95565b5b50505050505050565b614d68615762565b60606000614d74615762565b60006002600088815260200190815260200160002060010160009054906101000a900473ffffffffffffffffffffffffffffffffffffffff1673ffffffffffffffffffffffffffffffffffffffff163373ffffffffffffffffffffffffffffffffffffffff161415614f0f57859350614e3b614e246040805190810160405280600181526020017f2c000000000000000000000000000000000000000000000000000000000000008152506151bf565b614e2d866151bf565b6151ed90919063ffffffff16565b9250614e46866151bf565b9150600090505b60018301811015614f0e57614eaa614e996040805190810160405280600181526020017f2c000000000000000000000000000000000000000000000000000000000000008152506151bf565b86846152649092919063ffffffff16565b5060026000888152602001908152602001600020600801614ed2614ecd87615302565b615364565b90806001815401808255809150509060018203906000526020600020016000909192909190915090600019169055508080600101915050614e4d565b5b50505050505050565b600080614f2361577c565b6107b291505b8861ffff168261ffff161015614f6c57614f428261538f565b15614f55576301e2850083019250614f5f565b6301e13380830192505b8180600101925050614f29565b601f816000600c81101515614f7d57fe5b602002019060ff16908160ff1681525050614f978961538f565b15614fc357601d816001600c81101515614fad57fe5b602002019060ff16908160ff1681525050614fe6565b601c816001600c81101515614fd457fe5b602002019060ff16908160ff16815250505b601f816002600c81101515614ff757fe5b602002019060ff16908160ff1681525050601e816003600c8110151561501957fe5b602002019060ff16908160ff1681525050601f816004600c8110151561503b57fe5b602002019060ff16908160ff1681525050601e816005600c8110151561505d57fe5b602002019060ff16908160ff1681525050601f816006600c8110151561507f57fe5b602002019060ff16908160ff1681525050601f816007600c811015156150a157fe5b602002019060ff16908160ff1681525050601e816008600c811015156150c357fe5b602002019060ff16908160ff1681525050601f816009600c811015156150e557fe5b602002019060ff16908160ff1681525050601e81600a600c8110151561510757fe5b602002019060ff16908160ff1681525050601f81600b600c8110151561512957fe5b602002019060ff16908160ff1681525050600191505b8760ff168261ffff16101561518157806001830361ffff16600c8110151561516357fe5b602002015160ff16620151800283019250818060010192505061513f565b6001870360ff166201518002830192508560ff16610e1002830192508460ff16603c02830192508360ff168301925082925050509695505050505050565b6151c7615762565b600060208301905060408051908101604052808451815260200182815250915050919050565b60008082600001516152118560000151866020015186600001518760200151615410565b0190505b83600001518460200151018111151561525d5781806001019250508260000151615255856020015183038660000151038386600001518760200151615410565b019050615215565b5092915050565b61526c615762565b600061528a8560000151866020015186600001518760200151615410565b905084602001518360200181815250508460200151810383600001818152505084600001518560200151018114156152cc5760008560000181815250506152f7565b8360000151836000015101856000018181510391508181525050836000015181018560200181815250505b829150509392505050565b606080600083600001516040519080825280601f01601f19166020018201604052801561533e5781602001602082028038833980820191505090505b50915060208201905061535a81856020015186600001516154cc565b8192505050919050565b600060608290506000815114156153815760006001029150615389565b602083015191505b50919050565b60008060048361ffff168115156153a257fe5b0661ffff161415156153b7576000905061540b565b600060648361ffff168115156153c957fe5b0661ffff161415156153de576001905061540b565b60006101908361ffff168115156153f157fe5b0661ffff16141515615406576000905061540b565b600190505b919050565b600080600080600088871115156154ba576020871115156154715760018760200360080260020a031980875116888b038a018a96505b81838851161461546657600187019650806001880310615446578b8b0196505b5050508394506154c0565b8686209150879350600092505b868903831115156154b95786842090508060001916826000191614156154a6578394506154c0565b600184019350828060010193505061547e565b5b88880194505b50505050949350505050565b60005b6020821015156154f457825184526020840193506020830192506020820391506154cf565b6001826020036101000a0390508019835116818551168181178652505050505050565b81548183558181111561553e5781836000526020600020918201910161553d91906157a0565b5b505050565b6101206040519081016040528060008152602001600073ffffffffffffffffffffffffffffffffffffffff168152602001606081526020016060815260200160008152602001600081526020016060815260200160608152602001606081525090565b50805460018160011615610100020316600290046000825580601f106155cc57506155eb565b601f0160209004906000526020600020908101906155ea91906157c5565b5b50565b508054600082559060005260206000209081019061560c91906157a0565b50565b828054600181600116156101000203166002900490600052602060002090601f016020900481019282601f1061565057805160ff191683800117855561567e565b8280016001018555821561567e579182015b8281111561567d578251825591602001919060010190615662565b5b50905061568b91906157c5565b5090565b8280548282559060005260206000209081019282156156d1579160200282015b828111156156d05782518290600019169055916020019190600101906156af565b5b5090506156de91906157a0565b5090565b828054600181600116156101000203166002900490600052602060002090601f016020900481019282601f1061572357805160ff1916838001178555615751565b82800160010185558215615751579182015b82811115615750578251825591602001919060010190615735565b5b50905061575e91906157c5565b5090565b604080519081016040528060008152602001600081525090565b61018060405190810160405280600c90602082028038833980820191505090505090565b6157c291905b808211156157be5760008160009055506001016157a6565b5090565b90565b6157e791905b808211156157e35760008160009055506001016157cb565b5090565b905600a165627a7a723058202f0a8b1cd4846a1f3834f1ae6d5701cc54504526b0045e0f47a43845c34fdb2c0029",
  "source": "pragma solidity ^0.4.19;\n\nimport \"./Categorized.sol\";\nimport \"./Pricing.sol\";\nimport \"./DateTime.sol\";\nimport \"./strings.sol\";\n\ncontract Offer is Categorized, Pricing, DateTime {\n\tusing strings for *;\n\tstruct OfferStruct {\n\t\t// Ethereum parameters\n\t\tuint ID;\n\t\taddress provider;\n\t\t// BIG IoT parameters\n\t\tstring name;\n\t\tstring category;\n\t\tuint price;\n\t\tuint endTime;\n\t\tstring endpoint;\n\t\tbytes32[] inputs;\n\t\tbytes32[] outputs;\n\t}\n\n\tuint uniqueIdentifier;\n\taddress owner;\n\tmapping (uint => OfferStruct) offers;\n\n\tfunction Offer() public {\n\t\tuniqueIdentifier = 1;\n\t\towner = msg.sender;\n\t}\n\n\tfunction addOffer(string name, string category, string model, uint price,\n\t\t\t\t\t  string endpoint, string inputs, string outputs, uint16 year,\n\t\t\t\t\t  uint8 month, uint8 day, uint8 hour) public {\n\t\tOfferStruct memory offer;\n\t\toffer.ID = uniqueIdentifier;\n\t\toffer.provider = msg.sender;\n\t\tif(isCategoryAllowed(category) && isPricingModelAllowed(model) && keccak256(name) != keccak256(\"\")) {\n\t\t\toffer.name = name;\n\t\t\toffer.price = price;\n\t\t\toffer.category = category;\n\t\t\toffer.endTime = toTimestamp(year, month, day, hour);\n\t\t\toffers[uniqueIdentifier] = offer;\n\t\t\tchangeEndpoint(uniqueIdentifier, endpoint);\n\t\t\taddInput(uniqueIdentifier, inputs);\n\t\t\taddOutput(uniqueIdentifier, outputs);\n\t\t\tuniqueIdentifier = uniqueIdentifier + 1;\n\t\t}\n\t}\n\n\tfunction GetIndex(uint ID, string input, string inputOutputIdentifier) internal constant returns(bool exists, uint index){\n\t\tif (offers[ID].ID != 0 && offers[ID].provider == msg.sender){\n\t\t\tif (keccak256(inputOutputIdentifier) == keccak256('input')){\n\t\t\t\tfor(uint i = 0; i < offers[ID].inputs.length; i++){\n\t\t\t\t\tif (keccak256(offers[ID].inputs[i]) == keccak256(input)){\n\t\t\t\t\t\treturn (true, i);\n\t\t\t\t\t}\n\t\t\t\t}\n\t\t\t}\n\t\t\telse {\n\t\t\t\tif (keccak256(inputOutputIdentifier) == keccak256('output')){\n\t\t\t\t\tfor(uint j = 0; j < offers[ID].outputs.length; j++){\n\t\t\t\t\t\tif (keccak256(offers[ID].outputs[j]) == keccak256(input)){\n\t\t\t\t\t\t\treturn (true, j);\n\t\t\t\t\t\t}\n\t\t\t\t\t}\n\t\t\t\t}\n\t\t\t}\n\t\t}\n\t\treturn (false, 0);\n\t}\n\n\tfunction addInput(uint ID, string _inputs) internal{\n\t\tif (msg.sender == offers[ID].provider){\n\t\t\tstrings.slice memory part;\n\t\t\tvar temp = _inputs;\n\t\t\tuint count = temp.toSlice().count(\",\".toSlice());\n\t\t\tvar str = _inputs.toSlice();\n\t\t\tfor (uint i = 0; i < count+1; i++){\n\t\t\t\tstr.split(\",\".toSlice(), part);\n\t\t\t\toffers[ID].inputs.push(strings.stringToBytes32(part.toString()));\n\t\t\t}\n\t\t}\n\t}\n\n\tfunction addOutput(uint ID, string _outputs) internal{\n\t\tif (msg.sender == offers[ID].provider){\n\t\t\tstrings.slice memory part;\n\t\t\tvar temp = _outputs;\n\t\t\tuint count = temp.toSlice().count(\",\".toSlice());\n\t\t\tvar str = _outputs.toSlice();\n\t\t\tfor (uint i = 0; i < count+1; i++){\n\t\t\t\tstr.split(\",\".toSlice(), part);\n\t\t\t\toffers[ID].outputs.push(strings.stringToBytes32(part.toString()));\n\t\t\t}\n\t\t}\n\t}\n\n\tfunction deleteInput(uint ID, string _input) public returns(bool deleted){\n\t\tvar (state, index) = GetIndex(ID, _input, 'input');\n\t\tif (state == true){\n\t\t\toffers[ID].inputs[index] = offers[ID].inputs[offers[ID].inputs.length -1];\n\t\t\tdelete offers[ID].inputs[offers[ID].inputs.length -1];\n\t\t\toffers[ID].inputs.length--;\n\t\t\treturn true;\n\t\t}\n\t\treturn false;\n\t}\n\n\n\tfunction deleteOutput(uint ID, string _output) public returns(bool deleted){\n\t\tvar (state, index) = GetIndex(ID, _output, 'output');\n\t\tif (state == true){\n\t\t\toffers[ID].outputs[index] = offers[ID].outputs[offers[ID].outputs.length -1];\n\t\t\tdelete offers[ID].outputs[offers[ID].outputs.length -1];\n\t\t\toffers[ID].outputs.length--;\n\t\t\treturn true;\n\t\t}\n\t\treturn false;\n\t}\n\n\tfunction changeEndpoint(uint ID, string adressOfEndpoint) internal {\n\t\tif (msg.sender == offers[ID].provider){\n\t\t\toffers[ID].endpoint = adressOfEndpoint;\n\t\t}\n\t}\n\n\tfunction deleteOffer(uint ID) public {\n\t\tif(msg.sender == offers[ID].provider) {\n\t\t\tdelete offers[ID];\n\t\t}\n\t}\n\n\tfunction getOffer(uint _ID) public constant returns (uint ID, address provider, string name, string category, uint price, string endpoint, bytes32[] inputs, bytes32[] outputs) {\n\t\tOfferStruct memory offer;\n\t\toffer = offers[_ID];\n\t\treturn (offer.ID, offer.provider, offer.name, offer.category, offer.price, offer.endpoint, offer.inputs, offer.outputs);\n\t}\n\n\tfunction offeringQueryOne(string category, uint price, bytes32[] inputs, bytes32[] outputs, uint ittr) public constant returns (uint) {\n\t\tbytes memory byteCategory = bytes(category); // Uses memory\n\t\tif(byteCategory.length == 0) {\n\t\t\treturn 9998;\n\t\t}\n\t\tuint blockNumber = block.number;\n\t\tfor (uint i=1; i<ittr; i++) {\n\t\t\tif(keccak256(offers[i].category) == keccak256(category)) {\n\t\t\t\tif(price == 0 && inputs.length == 0 && outputs.length == 0) {\n\t\t\t\t\treturn i;\n\t\t\t\t}\n\t\t\t\tif(price != 0 && price < offers[i].price) {\n\t\t\t\t\tcontinue;\n\t\t\t\t}\n\t\t\t\t//Search for input\n\t\t\t\tuint inputCount = 0;\n\t\t\t\tif(inputs.length > 0) {\n\t\t\t\t\tfor(uint j=0; j<offers[i].inputs.length; j++) {\n\t\t\t\t\t\tfor(uint k=0; k<inputs.length; k++) {\n\t\t\t\t\t\t\tif(keccak256(offers[i].inputs[j]) == keccak256(inputs[k])) {\n\t\t\t\t\t\t\t\tinputCount = inputCount + 1;\n\t\t\t\t\t\t\t}\n\t\t\t\t\t\t}\n\t\t\t\t\t}\n\t\t\t\t}\n\t\t\t\t// Means that the offers provides at least the number of inputs\n\t\t\t\tif(outputs.length > 0 && inputCount >= inputs.length) {\n\t\t\t\t\t//Search for output\n\t\t\t\t\tuint outputCount = 0;\n\t\t\t\t\tfor(j=0; j<offers[i].outputs.length; j++) {\n\t\t\t\t\t\tfor(k=0; k<outputs.length; k++) {\n\t\t\t\t\t\t\tif(keccak256(offers[i].outputs[j]) == keccak256(outputs[k])) {\n\t\t\t\t\t\t\t\toutputCount = outputCount + 1;\n\t\t\t\t\t\t\t}\n\t\t\t\t\t\t}\n\t\t\t\t\t}\n\t\t\t\t\tif(outputCount >= outputs.length) {\n\t\t\t\t\t\treturn i;\n\t\t\t\t\t}\n\t\t\t\t}\n\t\t\t\telse if(inputCount >= inputs.length) {\n\t\t\t\t\treturn i;\n\t\t\t\t}\n\t\t\t}\n\t\t}\n\t\treturn 9999;\n\t}\n\n\tfunction offeringQueryOneOffset(string category, uint price, bytes32[] inputs, bytes32[] outputs, uint ittr, uint offSet) public constant returns (uint) {\n\t\tbytes memory byteCategory = bytes(category); // Uses memory\n\t\tif(byteCategory.length == 0) {\n\t\t\treturn 9998;\n\t\t}\n\n\t\tuint loopedThrough = 0;\n\t\tuint i=offSet;\n\n\t\twhile (i<ittr) {\n\t\t\tif(i == ittr-1 && loopedThrough == 0) {\n\t\t\t\ti = 0;\n\t\t\t\tittr = offSet;\n\t\t\t\tloopedThrough = 1;\n\t\t\t}\n\n\t\t\tif(keccak256(offers[i].category) == keccak256(category)) {\n\t\t\t\tif(price == 0 && inputs.length == 0 && outputs.length == 0) {\n\t\t\t\t\treturn i;\n\t\t\t\t}\n\t\t\t\tif(price != 0 && price < offers[i].price) {\n\t\t\t\t\tcontinue;\n\t\t\t\t}\n\t\t\t\t//Search for input\n\t\t\t\tuint inputCount = 0;\n\t\t\t\tif(inputs.length > 0) {\n\t\t\t\t\tfor(uint j=0; j<offers[i].inputs.length; j++) {\n\t\t\t\t\t\tfor(uint k=0; k<inputs.length; k++) {\n\t\t\t\t\t\t\tif(keccak256(offers[i].inputs[j]) == keccak256(inputs[k])) {\n\t\t\t\t\t\t\t\tinputCount = inputCount + 1;\n\t\t\t\t\t\t\t}\n\t\t\t\t\t\t}\n\t\t\t\t\t}\n\t\t\t\t}\n\t\t\t\t// Means that the offers provides at least the number of inputs\n\t\t\t\tif(outputs.length > 0 && inputCount >= inputs.length) {\n\t\t\t\t\t//Search for output\n\t\t\t\t\tuint outputCount = 0;\n\t\t\t\t\tfor(j=0; j<offers[i].outputs.length; j++) {\n\t\t\t\t\t\tfor(k=0; k<outputs.length; k++) {\n\t\t\t\t\t\t\tif(keccak256(offers[i].outputs[j]) == keccak256(outputs[k])) {\n\t\t\t\t\t\t\t\toutputCount = outputCount + 1;\n\t\t\t\t\t\t\t}\n\t\t\t\t\t\t}\n\t\t\t\t\t}\n\t\t\t\t\tif(outputCount >= outputs.length) {\n\t\t\t\t\t\treturn i;\n\t\t\t\t\t}\n\t\t\t\t}\n\t\t\t\telse if(inputCount >= inputs.length) {\n\t\t\t\t\treturn i;\n\t\t\t\t}\n\t\t\t}\n\t\t\ti = i + 1;\n\t\t}\n\t\treturn 9999;\n\t}\n\n\tfunction offeringQueryList(string category, uint price, bytes32[] inputs, bytes32[] outputs, uint ittr) public constant returns (uint[]) {\n\t\tbytes memory byteCategory = bytes(category); // Uses memory\n\t\tuint[] candidates;\n\t\tif(byteCategory.length == 0) {\n\t\t\treturn candidates;\n\t\t}\n\t\tfor (uint i=1; i<ittr; i++) {\n\t\t\tif(keccak256(offers[i].category) == keccak256(category)) {\n\t\t\t\tif(price != 0 && price < offers[i].price) {\n\t\t\t\t\tcontinue;\n\t\t\t\t}\n\t\t\t\telse if(inputs.length == 0 && outputs.length == 0) {\n\t\t\t\t\tcandidates.push(i);\n\t\t\t\t}\n\t\t\t\telse {\n\t\t\t\t\t//Search for input\n\t\t\t\t\tuint inputCount = 0;\n\t\t\t\t\tif(inputs.length > 0) {\n\t\t\t\t\t\tfor(uint j=0; j<offers[i].inputs.length; j++) {\n\t\t\t\t\t\t\tfor(uint k=0; k<inputs.length; k++) {\n\t\t\t\t\t\t\t\tif(keccak256(offers[i].inputs[j]) == keccak256(inputs[k])) {\n\t\t\t\t\t\t\t\t\tinputCount = inputCount + 1;\n\t\t\t\t\t\t\t\t}\n\t\t\t\t\t\t\t}\n\t\t\t\t\t\t}\n\t\t\t\t\t}\n\t\t\t\t\t// Means that the offers provides at least the number of inputs\n\t\t\t\t\tif(outputs.length > 0 && inputCount >= inputs.length) {\n\t\t\t\t\t\t//Search for output\n\t\t\t\t\t\tuint outputCount = 0;\n\t\t\t\t\t\tfor(j=0; j<offers[i].outputs.length; j++) {\n\t\t\t\t\t\t\tfor(k=0; k<outputs.length; k++) {\n\t\t\t\t\t\t\t\tif(keccak256(offers[i].outputs[j]) == keccak256(outputs[k])) {\n\t\t\t\t\t\t\t\t\toutputCount = outputCount + 1;\n\t\t\t\t\t\t\t\t}\n\t\t\t\t\t\t\t}\n\t\t\t\t\t\t}\n\t\t\t\t\t\tif(outputCount >= outputs.length) {\n\t\t\t\t\t\t\tcandidates.push(i);\n\t\t\t\t\t\t}\n\t\t\t\t\t}\n\t\t\t\t\telse if(inputCount >= inputs.length) {\n\t\t\t\t\t\tcandidates.push(i);\n\t\t\t\t\t}\n\t\t\t\t}\n\t\t\t}\n\t\t}\n\t\treturn candidates;\n\t}\n\n\tfunction offeringQueryListTest(string category, uint price, bytes32[] inputs, bytes32[] outputs, uint ittr) public constant returns (uint) {\n\t\tbytes memory byteCategory = bytes(category); // Uses memory\n\t\tuint result = 0;\n\t\tuint[] candidates;\n\t\tcandidates.push(1);\n\t\tif(byteCategory.length == 0) {\n\t\t\treturn 0;\n\t\t}\n\t\tfor (uint i=1; i<ittr; i++) {\n\t\t\tif(keccak256(offers[i].category) == keccak256(category)) {\n\t\t\t\tif(price != 0 && price < offers[i].price) {\n\t\t\t\t\tcontinue;\n\t\t\t\t}\n\t\t\t\telse if(inputs.length == 0 && outputs.length == 0) {\n\t\t\t\t\tresult = i;\n\t\t\t\t}\n\t\t\t\telse {\n\t\t\t\t\t//Search for input\n\t\t\t\t\tuint inputCount = 0;\n\t\t\t\t\tif(inputs.length > 0) {\n\t\t\t\t\t\tfor(uint j=0; j<offers[i].inputs.length; j++) {\n\t\t\t\t\t\t\tfor(uint k=0; k<inputs.length; k++) {\n\t\t\t\t\t\t\t\tif(keccak256(offers[i].inputs[j]) == keccak256(inputs[k])) {\n\t\t\t\t\t\t\t\t\tinputCount = inputCount + 1;\n\t\t\t\t\t\t\t\t}\n\t\t\t\t\t\t\t}\n\t\t\t\t\t\t}\n\t\t\t\t\t}\n\t\t\t\t\t// Means that the offers provides at least the number of inputs\n\t\t\t\t\tif(outputs.length > 0 && inputCount >= inputs.length) {\n\t\t\t\t\t\t//Search for output\n\t\t\t\t\t\tuint outputCount = 0;\n\t\t\t\t\t\tfor(j=0; j<offers[i].outputs.length; j++) {\n\t\t\t\t\t\t\tfor(k=0; k<outputs.length; k++) {\n\t\t\t\t\t\t\t\tif(keccak256(offers[i].outputs[j]) == keccak256(outputs[k])) {\n\t\t\t\t\t\t\t\t\toutputCount = outputCount + 1;\n\t\t\t\t\t\t\t\t}\n\t\t\t\t\t\t\t}\n\t\t\t\t\t\t}\n\t\t\t\t\t\tif(outputCount >= outputs.length) {\n\t\t\t\t\t\t\tresult = i;\n\t\t\t\t\t\t}\n\t\t\t\t\t}\n\t\t\t\t\telse if(inputCount >= inputs.length) {\n\t\t\t\t\t\tresult = i;\n\t\t\t\t\t}\n\t\t\t\t}\n\t\t\t}\n\t\t}\n\t\treturn result;\n\t}\n\n\n\tfunction getOfferLength() public constant returns (uint length){\n\t\tuint offerLength = uniqueIdentifier;\n\t\treturn offerLength;\n\t}\n\n\tfunction destroy() public {\n\t\tif(owner == msg.sender) {\n\t\t\tselfdestruct(owner);\n\t\t}\n\t}\n}\n",
  "sourcePath": "/home/peter/ethereum-testbed/testbed/truffle/contracts/Offer.sol",
  "compiler": {
    "name": "solc",
    "version": "0.4.24+commit.e67f0147.Emscripten.clang"
  },
  "schemaVersion": "2.0.1",
  "updatedAt": "2018-09-23T10:45:17.600Z"
}