{
  "contractName": "subscription",
  "abi": [
    {
      "inputs": [],
      "payable": false,
      "stateMutability": "nonpayable",
      "type": "constructor"
    },
    {
      "constant": true,
      "inputs": [
        {
          "name": "_ID",
          "type": "uint256"
        }
      ],
      "name": "CheckExistingOffer",
      "outputs": [
        {
          "name": "",
          "type": "bool"
        }
      ],
      "payable": false,
      "stateMutability": "view",
      "type": "function"
    },
    {
      "constant": false,
      "inputs": [
        {
          "name": "_ID",
          "type": "uint256"
        }
      ],
      "name": "createSubscription",
      "outputs": [
        {
          "name": "",
          "type": "bool"
        }
      ],
      "payable": false,
      "stateMutability": "nonpayable",
      "type": "function"
    },
    {
      "constant": true,
      "inputs": [
        {
          "name": "ID",
          "type": "uint256"
        }
      ],
      "name": "returnSubscribers",
      "outputs": [
        {
          "name": "",
          "type": "address[]"
        },
        {
          "name": "",
          "type": "uint256"
        }
      ],
      "payable": false,
      "stateMutability": "view",
      "type": "function"
    },
    {
      "constant": true,
      "inputs": [
        {
          "name": "ID",
          "type": "uint256"
        },
        {
          "name": "subscriber",
          "type": "address"
        }
      ],
      "name": "checkSubscription",
      "outputs": [
        {
          "name": "",
          "type": "bool"
        }
      ],
      "payable": false,
      "stateMutability": "view",
      "type": "function"
    },
    {
      "constant": false,
      "inputs": [
        {
          "name": "ID",
          "type": "uint256"
        }
      ],
      "name": "deleteSubscription",
      "outputs": [
        {
          "name": "",
          "type": "bool"
        }
      ],
      "payable": false,
      "stateMutability": "nonpayable",
      "type": "function"
    }
  ],
  "bytecode": "0x608060405234801561001057600080fd5b50336000806101000a81548173ffffffffffffffffffffffffffffffffffffffff021916908373ffffffffffffffffffffffffffffffffffffffff160217905550610c8b806100606000396000f30060806040526004361061006d576000357c0100000000000000000000000000000000000000000000000000000000900463ffffffff168063038a53ea1461007257806304879db2146100fb57806338b34251146101405780635cd667ac14610185578063dd22a120146101ea575b600080fd5b34801561007e57600080fd5b5061009d6004803603810190808035906020019092919050505061022f565b6040518080602001838152602001828103825284818151815260200191508051906020019060200280838360005b838110156100e65780820151818401526020810190506100cb565b50505050905001935050505060405180910390f35b34801561010757600080fd5b50610126600480360381019080803590602001909291905050506102f4565b604051808215151515815260200191505060405180910390f35b34801561014c57600080fd5b5061016b60048036038101908080359060200190929190505050610492565b604051808215151515815260200191505060405180910390f35b34801561019157600080fd5b506101d060048036038101908080359060200190929190803573ffffffffffffffffffffffffffffffffffffffff16906020019092919050505061061a565b604051808215151515815260200191505060405180910390f35b3480156101f657600080fd5b506102156004803603810190808035906020019092919050505061070f565b604051808215151515815260200191505060405180910390f35b60606000600160008481526020019081526020016000206001016001600085815260200190815260200160002060010180549050818054806020026020016040519081016040528092919081815260200182805480156102e457602002820191906000526020600020905b8160009054906101000a900473ffffffffffffffffffffffffffffffffffffffff1673ffffffffffffffffffffffffffffffffffffffff168152602001906001019080831161029a575b5050505050915091509150915091565b600080600061030384336109e9565b9150915060011515821515141561048657600160008581526020019081526020016000206001016001806000878152602001908152602001600020600101805490500381548110151561035257fe5b9060005260206000200160009054906101000a900473ffffffffffffffffffffffffffffffffffffffff1660016000868152602001908152602001600020600101828154811015156103a057fe5b9060005260206000200160006101000a81548173ffffffffffffffffffffffffffffffffffffffff021916908373ffffffffffffffffffffffffffffffffffffffff160217905550600160008581526020019081526020016000206001016001806000878152602001908152602001600020600101805490500381548110151561042657fe5b9060005260206000200160006101000a81549073ffffffffffffffffffffffffffffffffffffffff02191690556001600085815260200190815260200160002060010180548091906001900361047c9190610aef565b506001925061048b565b600092505b5050919050565b60008060606000600160008681526020019081526020016000206000015414156105945760016040519080825280602002602001820160405280156104e65781602001602082028038833980820191505090505b509050338160008151811015156104f957fe5b9060200190602002019073ffffffffffffffffffffffffffffffffffffffff16908173ffffffffffffffffffffffffffffffffffffffff168152505083826000018190555080826001019080519060200190610556929190610b1b565b50816001600086815260200190815260200160002060008201548160000155600182018160010190805461058b929190610ba5565b5090505061060f565b600160008581526020019081526020016000206001013390806001815401808255809150509060018203906000526020600020016000909192909190916101000a81548173ffffffffffffffffffffffffffffffffffffffff021916908373ffffffffffffffffffffffffffffffffffffffff160217905550505b600192505050919050565b6000806000600160008681526020019081526020016000206000015414151561070357600090505b60016000858152602001908152602001600020600101805490508110156106fa578273ffffffffffffffffffffffffffffffffffffffff16600160008681526020019081526020016000206001018281548110151561069d57fe5b9060005260206000200160009054906101000a900473ffffffffffffffffffffffffffffffffffffffff1673ffffffffffffffffffffffffffffffffffffffff1614156106ed5760019150610708565b8080600101915050610642565b60009150610708565b600091505b5092915050565b600080600080606080600060608060607354d9faa15b8401a9af973fbd3838f1e3c1dbb9e398508873ffffffffffffffffffffffffffffffffffffffff16634579268a8c6040518263ffffffff167c010000000000000000000000000000000000000000000000000000000002815260040180828152602001915050600060405180830381600087803b1580156107a557600080fd5b505af11580156107b9573d6000803e3d6000fd5b505050506040513d6000823e3d601f19601f820116820180604052506101008110156107e457600080fd5b810190808051906020019092919080519060200190929190805164010000000081111561081057600080fd5b8281019050602081018481111561082657600080fd5b815185600182028301116401000000008211171561084357600080fd5b5050929190602001805164010000000081111561085f57600080fd5b8281019050602081018481111561087557600080fd5b815185600182028301116401000000008211171561089257600080fd5b50509291906020018051906020019092919080516401000000008111156108b857600080fd5b828101905060208101848111156108ce57600080fd5b81518560018202830111640100000000821117156108eb57600080fd5b5050929190602001805164010000000081111561090757600080fd5b8281019050602081018481111561091d57600080fd5b815185602082028301116401000000008211171561093a57600080fd5b5050929190602001805164010000000081111561095657600080fd5b8281019050602081018481111561096c57600080fd5b815185602082028301116401000000008211171561098957600080fd5b5050929190505050975097509750975097509750975097506000881180156109c8575060008773ffffffffffffffffffffffffffffffffffffffff1614155b156109d657600199506109db565b600099505b505050505050505050919050565b6000806000806001600087815260200190815260200160002060000154141515610adc57600090505b6001600086815260200190815260200160002060010180549050811015610acd578373ffffffffffffffffffffffffffffffffffffffff166001600087815260200190815260200160002060010182815481101515610a6d57fe5b9060005260206000200160009054906101000a900473ffffffffffffffffffffffffffffffffffffffff1673ffffffffffffffffffffffffffffffffffffffff161415610ac05760018192509250610ae7565b8080600101915050610a12565b60008080905092509250610ae7565b600080809050925092505b509250929050565b815481835581811115610b1657818360005260206000209182019101610b159190610bf7565b5b505050565b828054828255906000526020600020908101928215610b94579160200282015b82811115610b935782518260006101000a81548173ffffffffffffffffffffffffffffffffffffffff021916908373ffffffffffffffffffffffffffffffffffffffff16021790555091602001919060010190610b3b565b5b509050610ba19190610c1c565b5090565b828054828255906000526020600020908101928215610be65760005260206000209182015b82811115610be5578254825591600101919060010190610bca565b5b509050610bf39190610c1c565b5090565b610c1991905b80821115610c15576000816000905550600101610bfd565b5090565b90565b610c5c91905b80821115610c5857600081816101000a81549073ffffffffffffffffffffffffffffffffffffffff021916905550600101610c22565b5090565b905600a165627a7a7230582032ca56d988f0058dc6c4d2ab06b269fbc103bd0635c1a40f0c98b3e81d63a7ad0029",
  "source": "pragma solidity ^0.4.19;\n\n// not implementated contract but needed as a strutual guide for the checkExistingOffer to be able to call contract on chain\ncontract offerFunction {\n\tfunction getOffer(uint _ID) public constant returns (uint ID, address provider, string name, string category, uint price, string endpoint, bytes32[] inputs, bytes32[] outputs);\n}\n\ncontract subscription {\n\t\n\tstruct SubscriberStruct {\n    \tuint ID;\n     \taddress[] subscribers;\n    }\n\n\taddress owner;\n\tmapping (uint => SubscriberStruct) subscriptions;\n\t\n\tfunction subscription() public{\n\t\towner = msg.sender;\n\t}\n\n\tfunction CheckExistingOffer(uint _ID) public constant returns(bool){\n\t\tofferFunction func = offerFunction(0x54d9faa15b8401a9af973fbd3838f1e3c1dbb9e3);\n\t\tvar (ID, provider, name, category, price, endpoint, inputs, outputs) = func.getOffer(_ID);\n\t\tif (ID > 0 && provider != 0x0){\n\t\t\treturn true;\n\t\t}\n\t\telse{\n\t\t\treturn false;\n\t\t} \n\t}\n\n\tfunction createSubscription(uint _ID) public returns(bool){\n\t\tif (subscriptions[_ID].ID == 0){\n\t\t\tSubscriberStruct subscriptionList;\n\t\t\taddress[] memory firstSubscriber = new address[](1);\n\t\t\tfirstSubscriber[0] = msg.sender;\n\t\t\tsubscriptionList.ID = _ID;\n\t\t\tsubscriptionList.subscribers = firstSubscriber;\n\t\t\tsubscriptions[_ID] = subscriptionList;\n\t\t}\n\t\telse{\n\t\t\tsubscriptions[_ID].subscribers.push(msg.sender);\n\t\t}\n\t\treturn true;\n\t}\n\n\tfunction returnSubscribers(uint ID) public constant returns(address[], uint){\n\t\treturn (subscriptions[ID].subscribers, subscriptions[ID].subscribers.length);\n\t}\n\n\tfunction checkSubscription(uint ID, address subscriber) public constant returns(bool){\n\t\tif (subscriptions[ID].ID != 0){\n\t\t\tfor(uint i = 0; i < subscriptions[ID].subscribers.length; i++){\n\t\t\t\tif (subscriptions[ID].subscribers[i] == subscriber){\n\t\t\t\t\treturn true;\n\t\t\t\t}\n\t\t\t}\n\t\t\treturn false;\n\t\t}\n\t\telse{\n\t\t\treturn false;\n\t\t}\n\n\t}\n\n\tfunction GetSubscriptionIndex(uint ID, address subscriber) internal constant returns(bool, uint){\n\t\tif (subscriptions[ID].ID != 0){\n\t\t\tfor(uint i = 0; i < subscriptions[ID].subscribers.length; i++){\n\t\t\t\tif (subscriptions[ID].subscribers[i] == subscriber){\n\t\t\t\t\treturn (true, i);\n\t\t\t\t}\n\t\t\t}\n\t\t\treturn (false, 0);\n\t\t}\n\t\telse{\n\t\t\treturn (false, 0);\n\t\t}\n\n\t}\n\n\tfunction deleteSubscription(uint ID) public returns(bool){\n\t\tvar (state, index) = GetSubscriptionIndex(ID, msg.sender);\n\t\tif (state == true){\n\t\t\tsubscriptions[ID].subscribers[index] = subscriptions[ID].subscribers[subscriptions[ID].subscribers.length -1]; \n\t\t\tdelete subscriptions[ID].subscribers[subscriptions[ID].subscribers.length -1];\n\t\t\tsubscriptions[ID].subscribers.length--;\n\t\t\treturn true;\n\t\t}\n\t\treturn false;\n\t}\n} ",
  "sourcePath": "/home/administrator/testbed/truffle/contracts/subscription.sol",
  "compiler": {
    "name": "solc",
    "version": "0.4.24+commit.e67f0147.Emscripten.clang"
  },
  "schemaVersion": "2.0.1",
  "updatedAt": "2018-08-27T08:49:03.360Z"
}